S01B0000726F626F745F61726D5F636F6E74726F6C5F342E7372656351
S11300006BC0000079C0000077C0000075C000001C
S113001073C0000071C000006FC000006DC000001C
S11300206BC0000069C0000067C0000065C000002C
S113003063C0000061C000005FC0000031C2000066
S11300405BC0000059C0000057C0000055C000004C
S113005053C0000051C000004FC000004DC000005C
S11300604BC0000049C0000047C0000045C000006C
S113007043C0000041C000003FC000003DC000007C
S11300803BC0000039C0000037C00000D100D400DC
S1130090D700DA00DD00E000E300E300E300E30062
S11300A0E300E300E300E300E300E300E300E30034
S11300B0E300E300E300E300E300E300E300E30024
S11300C0E300E300E300E300E300E300D100D40035
S11300D0D700DA00DD00E00011241FBECFEFD0E12D
S11300E0DEBFCDBF21E0A0E0B1E001C01D92AC3D78
S11300F0B207E1F70FD252C283CFEBE9F0E080817F
S113010082608083EAE9F0E0808188618083EDE9A0
S1130110F0E0808186608083109298008FEC809359
S113012099000895EBE9F0E0908195FFFDCF80936D
S11301309C000895AC0155954795559547959C01AC
S113014021703078332334F4215031092E6F3F6FFE
S11301502F5F3F4F240F215083709078992324F40C
S113016001978C6F9F6F019695958795820F8230CA
S113017008F085E608950F931F93CF93DF93CDB7CF
S1130180DEB760970FB6F894DEBF0FBECDBF90E028
S1130190FC01E154F109E632F105A8F4EA5BFF4FF2
S11301A0F4C109B310E011C006B310E00EC003B3EC
S11301B010E00BC000B310E008C001B110E005C0AE
S11301C000B110E002C000E010E0FE01319680E1D1
S11301D0DF011D928A95E9F7A0E0B0E080E090E0AD
S11301E004C01A161B06DCF041C09B01082E02C095
S11301F0359527950A94E2F720FF0CC0FD01EE0F18
S1130200FF1F21E030E02C0F3D1FE20FF31F91830D
S11302108083119601968830910539F7E2CFFE016B
S1130220319640E050E080E090E020813296B801C1
S113023002C0759567952A95E2F79B012170307885
S1130240332334F4215031092E6F3F6F2F5F3F4F1A
S1130250042E02C0220F331F0A94E2F7822B932B41
S11302604F5F5F4FA417B50701F702C080E090E02D
S113027060960FB6F894DEBF0FBECDBFDF91CF916D
S11302801F910F9108959F92AF92BF92CF92DF92E8
S1130290EF92FF920F931F93CF93DF938C01EB01A7
S11302A049DFF82E85E6F81609F48FC0CE0142DF47
S11302B0853609F4B8C0C8019595879595958795B5
S11302C0D82EAE015595479555954795A42E8F1573
S11302D039F0842799249394813019F4912C01C026
S11302E0912CF801E370F078FF2324F43197EC6F3C
S11302F0FF6F3196F595E795CE2EDE01A370B078A9
S1130300BB2324F41197AC6FBF6F1196B595A795D5
S1130310BA2EC170D078DD2324F42197CE6FDF6F1D
S11303202196EC2E6F2D6A2770E0CF25D0E0CB010B
S1130330880F991F9E01220F331F2C0F3D1F280F7A
S1130340391F929E802D1124CF1421F0EA27E13029
S113035009F03FC04F2550E0DF1411F0DA1002C05D
S113036090E001C091E0292F30E0CF1003C004C019
S113037021E030E0CB1002C090E001C091E00170B8
S11303801078112334F4015011090E6F1F6F0F5FA1
S11303901F4F290F311D0F15D1F10E112BC03CC079
S11303A090E003C091E001C091E0440F551FFB01B0
S11303B0EE0FFF1F6E0F7F1F460F571F820F949F74
S11303C0800D1124863019F02EC08F2D2CC085E6A7
S11303D02AC04F2550E0CC0FDD1F9A01220F331F96
S11303E0240F351FC20FD31F8C0FDF100DC020E068
S11303F030E0C0CF2F5F3F4F922F990F290F220F6C
S11304000E25013079F6CCCFDA10B2CFA9CF922FD6
S1130410990F290F220FC4CF922F990F290F220F62
S11304200F11C2CFBDCFDF91CF911F910F91FF90DC
S1130430EF90DF90CF90BF90AF909F900895CF93AF
S1130440DF93EC0169857A858E8195DE2F85388965
S11304502F3F4FEF340719F4988B8F8704C03A8BE2
S1130460298B988B8F876F85788989899A890BDF87
S1130470833029F0853679F0823079F406C08D8591
S11304809E8501969E878D8708C08D859E850197E0
S11304909E878D8702C085E68C87DF91CF91089572
S11304A01F920F920FB60F9211240BB60F922F9337
S11304B03F934F935F936F937F938F939F93AF93E8
S11304C0BF93EF93FF938FE291E0B9DFFF91EF9138
S11304D0BF91AF919F918F917F916F915F914F9158
S11304E03F912F910F900BBE0F900FBE0F901F9056
S11304F01895FC018581813061F4478F50A361A375
S113050072A383A594A5A5A5B6A583A394A3A5A327
S1130510B6A30895F2DDE0E0F1E08EE682AF81E07B
S113052090E092AB81AB91E093AB82E685AB2FE395
S113053030E037AB26AB27E030E031AF20AF2FEF10
S11305403FEF37AF26AF309341012093400181E460
S113055083BF12BE8AE081BF87B7826087BF789469
S113056010925A0110925B0110925C0110925D018D
S113057094AB4EE150E060E070E08FE291E0B9DFCF
S1130580C0E0D1E08CADCEDDFDCFEE0FFF1F002427
S1130590001C0BBE0790F691E02D0994F894FFCF50
S9030000FC
