:100000008AC00000B2C00000B0C00000AEC0000056
:10001000ACC00000AAC00000A8C00000A6C000003C
:10002000A4C00000A2C00000A0C000009EC000004C
:100030009CC000009AC0000098C000000C94A90B5E
:1000400094C0000092C0000090C000008EC000006C
:100050008CC000008AC0000088C0000086C000007C
:1000600084C0000082C0000080C000007EC000008C
:100070007CC000007AC0000078C0000076C000009C
:1000800074C0000072C0000070C00000036EDB3658
:100090003D9A9999993DABAAAA2A3E000000803F5B
:1000A000084AD73B3BCE016E84BCBFFDC12F3D6CDF
:1000B00074319ABD56833DDA3D00C77F11BED9E445
:1000C000BB4C3E916BAAAABE000000803F072C7A71
:1000D000A5BA6CC590DA3B9365FC8BBC53F810FD58
:1000E0003C5692834DBD879D3AB63DCBC9BF5BBEA2
:1000F00073DA0FC93F05A84CCDB2D44EB93836A932
:10010000020C50B9918688083CA6AAAA2ABE000013
:1001100000803F00070E11241FBECFEFD0E1DEBFED
:10012000CDBF11E0A0E0B1E0E8E4F6E200E00BBFF3
:1001300002C007900D92A231B107D9F722E0A2E1E7
:10014000B1E001C01D92A03EB207E1F710E0CBE89C
:10015000D0E004C02197FE010E941913CA38D107CC
:10016000C9F70E94D60B0C9422134ACFEBE9F0E0BA
:10017000808182608083EAE9F0E080818861808309
:10018000EDE9F0E0808186608083109298008FEC2A
:1001900080939900089590919B0095FFFCCF8093E8
:1001A0009C000895FC019C01359527953595279570
:1001B000CF0162E070E00E94F212820F2FEF280F51
:1001C000CF0164E070E00E94F21295958795820F4E
:1001D000823008F085E6089520E030E028173907DE
:1001E0004CF4EFE9FFE03197F1F700C000002F5F1A
:1001F0003F4FF4CF0895CF92DF92EF92FF920F938B
:100200001F93CF93DF93CDB7DEB760970FB6F89407
:10021000DEBF0FBECDBF863431F168F48334E9F020
:1002200028F48134B1F08234B1F020C08434B9F0C4
:100230008534B9F01BC0833681F028F4813649F04B
:10024000823649F013C0853661F048F0863659F0A1
:100250000DC029B309C026B307C023B305C020B31E
:1002600003C021B101C020B130E002C020E030E085
:10027000FE01319680E1DF011D928A95E9F7E12CBC
:10028000F12C80E090E070E0AB01082E02C05595A3
:1002900047950A94E2F740FF0AC0D701AA0FBB1F97
:1002A000AE0FBF1F8D939C93BFEFEB1AFB0A019615
:1002B0008830910549F700E010E040E082E0C82E68
:1002C000D12C0E151F05A9F080813296B90102C00C
:1002D000759567958A95E2F7CB01B6010E94F212F7
:1002E000002E01C0880F0A94EAF7482B0F5F1F4FBA
:1002F000E8CF842F90E060960FB6F894DEBF0FBE73
:10030000CDBFDF91CF911F910F91FF90EF90DF90C4
:10031000CF900895863459F168F48334F9F028F4C5
:100320008134B1F08234B9F008958434D1F0853449
:10033000D9F00895833691F028F4813649F0823659
:1003400051F00895853681F060F0863681F0089589
:1003500064236BBB0895642368BB0895642365BB65
:100360000895642362BB0895642363B908956423E8
:100370006093620008955F926F927F928F929F9236
:10038000AF92BF92CF92DF92EF92FF920F931F93A3
:10039000CF93DF938C016B0105DFC82F853609F4FD
:1003A00090C0C601FFDE853609F499C0C801959555
:1003B000879595958795982EF601F595E795F5958E
:1003C000E7956E2E8C1709F47EC08E275524539422
:1003D000813009F478C024E030E0C801B9010E94FE
:1003E000F2127C01F594E7948E2CC601B9010E94AB
:1003F000F2125C01B594A7947A2CC60162E070E019
:100400000E94F212D82EC82EDC2FDA254C2F482756
:100410002D2F30E0220F331F83E0489F200D311D28
:100420001124529E202D1124EC1609F44EC08A2D61
:100430008E2591E0813009F448C03C2F3E2750E0E2
:10044000440F551FA3E03A9F400D511D1124949F66
:10045000200D11249C16D9F1E1E09614C1F1F0E0D1
:100460008C16B9F141E08714A1F1C80162E070E097
:100470000E94F212982F682FDF01A40FB11DAD0169
:100480008C1749F181E09C1531F1480F511D842FE3
:10049000880F480F842F880F6C17F9F09D2541E0D5
:1004A0009130D9F0E32FF0E0EE0FFF1FB3E0DB9FB8
:1004B000E00DF11D1124820F4E9F800D1124863016
:1004C00071F485E60CC0512C86CF90E0B6CFE0E009
:1004D000C6CF40E0CACF80E0D8CF40E0E3CFDF9185
:1004E000CF911F910F91FF90EF90DF90CF90BF9031
:1004F000AF909F908F907F906F905F9008959C0138
:10050000613039F040F0623059F0633039F490E0F6
:1005100008C091E006C080E090E0089595E601C033
:100520009FEF23303105C1F425E030E005C02230D3
:100530003105D9F426E030E0A901490F511DCA0167
:1005400066E070E00E94F212FC01E45FFE4F8081E1
:10055000082E000C990B0895243031054CF42130FD
:10056000310529F724E030E0E7CF85E690E00895F3
:100570002530310549F05CF026303105B1F7892F7F
:1005800090E00196B901DECF23E030E0D5CF22E044
:1005900030E0D2CF0097A9F46335710579F024F4E7
:1005A0006E34710541F013C06E36710521F063376A
:1005B000710521F00CC080E090E0089583E090E0A8
:1005C00008951816190634F082E090E0089585E643
:1005D00090E0089581E090E00895FC01613071059C
:1005E00021F06230710549F0089580819181A281E6
:1005F000B3810196A11DB11D07C080819181A281A7
:10060000B3810197A109B10980839183A283B38348
:1006100008954F925F926F927F92AF92BF92CF9266
:10062000DF92EF92FF920F931F93CF93DF93EC0132
:100630008B01FC01E45AFE4F408051806280738040
:100640003A97DC01AA5ABE4F2D913D914D915C9194
:1006500060817181828193810E944F106B017C01C6
:100660005E0184E7A81A8EEFB80AFE01E859FE4F32
:10067000A301920160817181828193810E946A0F3E
:10068000A70196010E942F12A30192010E946B0FF5
:10069000F5016083718382839383BC97408051808E
:1006A000628073805E01F0E7AF1AFEEFBF0A3C96EE
:1006B000A301920160817181828193810E946A0FFE
:1006C000A70196010E942F12A30192010E946B0FB5
:1006D000F5016083718382839383BC97408051804E
:1006E000628073805E01FCE6AF1AFEEFBF0AC0595C
:1006F000DE4FA3019201688179818A819B810E94EA
:100700006A0FA70196010E942F12A30192010E9475
:100710006B0FF5016083718382839383F8014480BA
:10072000558066807780A3019201608571858285FE
:1007300093850E946A0FA70196010E942F12A301C0
:1007400092010E946B0FF801608B718B828B938BEF
:100750004488558866887788A3019201608D718DE1
:10076000828D938D0E946A0FA70196010E942F121D
:10077000A30192010E946B0FF80160A371A382A3F1
:1007800093A3DF91CF911F910F91FF90EF90DF9096
:10079000CF90BF90AF907F906F905F904F900895F3
:1007A0004F925F926F927F92AF92BF92CF92DF9201
:1007B000EF92FF920F931F93CF93DF93CDB7DEB7E6
:1007C00060970FB6F894DEBF0FBECDBF2B013C0182
:1007D0002D833E834F835887E986FA860B871C87D3
:1007E0002BED3FE049EC5FE30E946A0F9B01AC01F7
:1007F0000E942F1227EE39EE4DE150E40E942412A0
:1008000018160CF488C020E030E0A901C601B5013B
:100810000E944810882369F029853A854B855C85BC
:10082000C601B5010E94F50F69837A838B839C838F
:1008300004C019821A821B821C822BED3FE049E41E
:1008400050E4C301B2010E944810882339F0C3016B
:10085000B2010E9492129B01AC0103C020E030E083
:10086000A9016D817E818F8198850E942F126D87ED
:100870007E878F87988B69817A818B819C810E948A
:100880004C109B01AC016D857E858F8598890E94F7
:100890002F129B01AC0169857A858B859C850E940E
:1008A0006A0FEDA1FEA160837183828393836981C6
:1008B0007A818B819C810E9492129B01AC016D8593
:1008C0007E858F8598890E942F129B01AC01C601FD
:1008D000B5010E946A0FEFA1F8A56083718382833E
:1008E0009383C301B2010E944C109B01AC016D8146
:1008F0007E818F8198850E942F129B01AC0169A196
:100900007AA18BA19CA10E946A0FE9A5FAA5608338
:1009100071838283938380E090E060960FB6F894B1
:10092000DEBF0FBECDBFDF91CF911F910F91FF9022
:10093000EF90DF90CF90BF90AF907F906F905F90DF
:100940004F9008952F923F924F925F926F927F92B5
:100950008F929F92AF92BF92CF92DF92EF92FF92CF
:100960000F931F93CF93DF93CDB7DEB768970FB682
:10097000F894DEBF0FBECDBF1C0149875A876B8735
:100980007C870D871E872F87388BC98ADA8AEB8A86
:10099000FC8AA5019401C501B4010E942F126B01CC
:1009A0007C012DA53EA54FA558A9CA01B9010E94F9
:1009B0002F129B01AC01C701B6010E946B0F2B01E6
:1009C0003C0129A93AA94BA95CA9CA01B9010E9415
:1009D0002F12A30192010E946B0F0E949C126B01C7
:1009E0007C01A50194016DA57EA58FA598A90E9403
:1009F000F50F6D8B7E8B8F8B988FC301B2010E9498
:100A00009C129B01AC0169A97AA98BA99CA90E949F
:100A1000F50F9B01AC016BED7FE089EC9FE30E9439
:100A20006A0F69837A838B839C830E944C102B010D
:100A30003C0129853A854B855C85CA01B9010E9434
:100A40002F124B015C01A7019601C701B6010E945C
:100A50002F129B01AC01C501B4010E946B0F4B0129
:100A60005C0129853A854B855C85CA01B9010E94E4
:100A70006B0FA70196010E942F12A30192010E9401
:100A80002F129B01AC01C501B4010E946A0F0E94A4
:100A90009C122B013C01F101E058FE4F80819181B5
:100AA000A281B3818D839E83AF83B88720E030E03D
:100AB000A901BC01CD010E944810811122C020E093
:100AC00030E0A901F101EC57FE4F60817181828114
:100AD00093810E944810811114C029853A854B8565
:100AE0005C85F101E857FE4F6081718182819381BD
:100AF0000E946A0F20E030E0A9010E94481088237C
:100B000081F120E030E0A901F101E856FE4F60815B
:100B10007181828193810E9448108111CEC020E0B2
:100B200030E0A901F101E456FE4F608171818281BC
:100B300093810E9448108111C0C029853A854B8558
:100B40005C85F101E056FE4F608171818281938165
:100B50000E946A0F20E030E0A9010E944810811134
:100B6000ACC0F101EC57FE4F80819181A281B3812D
:100B70008D879E87AF87B88B2D813E814F815885A9
:100B8000CA01B9010E942F126B017C012D853E859F
:100B90004F855889CA01B9010E942F129B01AC01EF
:100BA000C701B6010E946B0F0E949C124B015C01B1
:100BB000F101E856FE4F6081718182819381349604
:100BC000C080D180E280F3809B01AC010E942F1293
:100BD00069837A838B839C83A7019601C701B60141
:100BE0000E942F129B01AC0169817A818B819C81CB
:100BF0000E946B0F0E949C12A50194010E946A0F33
:100C00004B015C01F101E857FE4F80819181A28187
:100C1000B38189839A83AB83BC8378969C01AD01B1
:100C200060817181828193810E946A0F6B017C01D6
:100C300020E030E0A9016D817E818F8198850E943E
:100C40004810811121C020E030E0A9016D857E852A
:100C50008F8598890E944810811116C029853A8590
:100C60004B855C8569817A818B819C810E946A0FAA
:100C700020E030E0A9010E944810811105C0A501C3
:100C80009401C701B60106C0A50194015058C701DF
:100C9000B60190580E94F50F2BED3FE049EC5FE361
:100CA0000E946B0F6B017C019BED892E9FE0992EBA
:100CB00099ECA92E9FE3B92E66C069817A818B8158
:100CC0009C810E9492124B015C01A3019201C70119
:100CD000B6010E944F10A50194010E942F126B01D2
:100CE0007C0120E030E040E85FE30E942412181607
:100CF00034F4C12CD12C80E8E82E8FE3F82EC70104
:100D0000B6010E94CF0F6B017C01A3019201C301C8
:100D1000B2010E942F124B015C012D853E854F854B
:100D20005889CA01B9010E942F129B01AC01C5016B
:100D3000B4010E946B0F4B015C0129893A894B89F0
:100D40005C89CA01B9010E942F129B01AC01C50147
:100D5000B4010E946A0F4B015C01A3019201C3011F
:100D6000B2010E946B0F2D853E854F8558890E94E8
:100D70002F129B01AC01C501B4010E944F100E94CB
:100D80005C0F4B015C01A5019401C701B6010E94F3
:100D90006B0F9B01AC016BED7FE089E490E40E9456
:100DA0006A0F6B017C01C501B4010E9492124B01D4
:100DB0005C0129893A894B895C89C301B2010E948F
:100DC0004F10A50194010E942F120E94CF0F9B018A
:100DD000AC016BED7FE089E490E40E946A0F4B0167
:100DE0005C019B01AC01C701B6010E946B0F9B0126
:100DF000AC01DC01CB01B0582396EEADFFAD2397DB
:100E000080839183A283B383E9ADFAAD8D899E89F6
:100E1000AF89B88D80839183A283B383EBADFCADA2
:100E2000C082D182E282F382EDADFEAD80829182FA
:100E3000A282B3826DA97EA98FA998AD0E946A0F84
:100E40002196EEADFFAD21976083718382839383FA
:100E500068960FB6F894DEBF0FBECDBFDF91CF917D
:100E60001F910F91FF90EF90DF90CF90BF90AF90C8
:100E70009F908F907F906F905F904F903F902F90BA
:100E80000895EF92FF920F931F93CF93DF93EC019E
:100E90007B0100E010E00E151F05FCF46A817B81E8
:100EA000072E000C880B990B0E94EA1028A939A97B
:100EB0004AA95BA90E942F122BED3FE049EC50E4B8
:100EC0000E944F100E94B7106CAF7DAF8EAF9FAFE6
:100ED000C05CDF4F0F5F1F4FDECFDF91CF911F91BF
:100EE0000F91FF90EF9008956F927F928F929F9253
:100EF000AF92BF92CF92DF92EF92FF920F931F9328
:100F0000CF93DF93EC013B01FC01E057FE4FA08043
:100F1000B180C280D3803497E080F1800281138158
:100F2000FB012081318142815381608971898289ED
:100F30009389E2EBF2E0FF93EF93EEEAF2E0FF93A6
:100F4000EF93EAEAF2E0FF93EF93FE01EC56FE4FD7
:100F5000A381AF93A281AF93A181AF93E081EF937F
:100F60001FDCFE01E856FE4F80809180A280B38096
:100F7000EE54F109C080D180E280F3803497008183
:100F80001181228133813497408151816281738143
:100F9000CE018C559E4F9F938F93845B91099F93B5
:100FA0008F93805491099F938F93805491099F93BD
:100FB0008F93805491099F938F93F30183898F932B
:100FC00082898F9381898F9380898F93FE01E05668
:100FD000FE4F83818F9382818F9381818F93808154
:100FE0008F93349783818F9382818F9381818F93A5
:100FF00080818F93CE01A6DCC05DDE4FF30180A11E
:1010000091A1A2A1B3A188839983AA83BB838DB741
:101010009EB780960FB6F8949EBF0FBE8DBF65E059
:1010200070E082E191E0DF91CF911F910F91FF90ED
:10103000EF90DF90CF90BF90AF909F908F907F9078
:101040006F901FCF0F931F93CF93DF93EC018C0111
:10105000005C1E4F6B8570E08CA99DA99BDA8D8B7F
:10106000C05CDF4FC017D107A9F7DF91CF911F9167
:101070000F91089540E04ED98FE19EE40197F1F77A
:1010800000C000000895BF92CF92DF92EF92FF92CE
:101090000F931F93CF93DF93D82FB62E7A01890138
:1010A000FA018081843010F590E0FC01EC5FFE4F86
:1010B00020812130D9F4FC01E85FFE4FC080F4E0CC
:1010C000CF9E60011124FC01E050FF4FD080CD2D58
:1010D000C260CC294C2F8D2F1DD984E190E07CD8A3
:1010E0004D2D4C294C2B6B2D8D2F14D9F701608180
:1010F00070E0C801DF91CF911F910F91FF90EF90A9
:10110000DF90CF90BF9069CAAF92BF92CF92DF922B
:10111000EF92FF920F931F93CF93DF93C82FD62F99
:101120006A015901F601E080F180B701F501808183
:10113000918121D9811109C0F8016081C701DFD9EE
:10114000482F6D2F8C2FE6D8EDCF6D2F8C2FDF9190
:10115000CF911F910F91FF90EF90DF90CF90BF90B4
:10116000AF9088CFCF92DF92EF92FF920F931F93B1
:10117000FC01862F642FD9019601E635F105F9F0BF
:101180003CF4E234F10569F0E335F10581F022C069
:10119000E337F10561F0E637F10589F0E236F10554
:1011A000C9F49801752F8701AD01AEDF13C0A70107
:1011B0001F910F91FF90EF90DF90CF9064CFF701D8
:1011C000608170E0C9011F910F91FF90EF90DF9057
:1011D000CF9003CA1F910F91FF90EF90DF90CF90B7
:1011E00008958F929F92AF92BF92CF92DF92EF922B
:1011F000FF920F931F93CF93DF93EC014B01A12C30
:10120000B12CA814B904ECF48B8D8E36A1F44F8167
:1012100058856E0188E3C80ED11C7E0185E1E80E79
:10122000F11C8E010F5E1F4F9E01215F3F4F6E81AB
:101230008881998197DFC05CDF4F8FEFA81AB80AC9
:10124000E0CFDF91CF911F910F91FF90EF90DF9052
:10125000CF90BF90AF909F908F900895EF92FF92A4
:101260000F931F93CF93DF937C0126EAE21A2EEFB0
:10127000F20AF70120812E3609F054C08B01EC01EF
:101280003897DC01AA5ABE4F2D913D914D915C914A
:10129000608171818281938102D720E030E040E853
:1012A0005FE30E94241218160CF048C0FE01E45AB5
:1012B000FE4FDE01AC58BE4F8D919D910D90BC91BB
:1012C000A02D80839183A283B3833496DE01A85836
:1012D000BE4F8D919D910D90BC91A02D80839183E7
:1012E000A283B3833496C458DE4F88819981AA8142
:1012F000BB8180839183A283B383F8018485958524
:10130000A685B78584839583A683B783848D958DC1
:10131000A68DB78D848B958BA68BB78B89E7F7014C
:1013200080830DC0293749F4EC01CE5ADE4F188274
:1013300019821A821B8289E702C002C08EE690E001
:10134000DF91CF911F910F91FF90EF900895CF9271
:10135000DF92EF92FF920F931F93CF93DF93DB0106
:10136000EC01C05CDE4FFC0120E030E019E70EE646
:1013700044AD55AD66AD77ADC0ACD1ACE2ACF3AC2D
:101380004C195D096E097F0944AB55AB66AB77AB71
:10139000452B462B472B21F0038F2F5F3F4F09C072
:1013A00040A951A962A973A944A755A766A777A721
:1013B000138FE05CFF4FCE17DF07D1F6232BE9F543
:1013C000FC01EC58FE4FEC01C457DE4F48815981B7
:1013D0006A817B8140835183628373833496249630
:1013E000488159816A817B81408351836283738301
:1013F00034962496488159816A817B814083518348
:101400006283738350964D915D916D917C9153975A
:101410001C964D935D936D937C931F9790964D9181
:101420005D916D917C9193975C964D935D936D93D7
:101430007C935F9789E790E002C08EE690E0DF91B1
:10144000CF911F910F91FF90EF90DF90CF90089573
:101450002F923F924F925F926F927F928F929F92C4
:10146000AF92BF92CF92DF92EF92FF920F931F93B2
:10147000CF93DF93CDB7DEB762970FB6F894DEBF98
:101480000FBECDBF1C017A87698729013A01EB861F
:10149000FC860D871E87AF86B88AC98ADA8A2FA193
:1014A0002D8338A53E8389A58F839AA59887DB0174
:1014B0002D913D914D915C91F101E857FE4FFA83DA
:1014C000E983FF93EF93C1018C579E4F9C838B83DD
:1014D0009F938F93410190E8891A9EEF990A9F92FA
:1014E0008F92AA89AF93B989BF93E889EF93FF855B
:1014F000FF93AB84BC84CD84DE8483017201BD8103
:10150000AE81FF81E8856B2F7A2F8F2F9E2F48D9D0
:10151000D4018D909D90AD90BC90F101E65BFE4FA3
:10152000C080D180E280F3803497008111812281D4
:10153000338134974081518162817381C1018C551F
:101540009E4F9F938F93845B91099F938F938054B9
:1015500091099F938F93805491099F938F93805407
:1015600091099F938F93B885BF93EF81EF93FE818D
:10157000FF938D818F93A981BA8113968C911397D4
:101580008F9312968C9112978F9311968C9111973D
:101590008F938C918F93EB81FC8183818F938281D8
:1015A0008F9381818F9380818F93C101CBD90FB6A7
:1015B000F894DEBF0FBECDBF65E070E082E191E040
:1015C00060DCF10180E090E0AFA5B8A98A179B0725
:1015D00064F444AD55AD66AD77AD40AF51AF62AF89
:1015E00073AFE05CFF4F0196EFCFF101E45AFE4F7D
:1015F000408251826282738234968B859C85AD8550
:10160000BE8580839183A283B38334965F854889A6
:1016100039892A89852F942FA32FB22F8083918314
:10162000A283B3835D814E813F812885852F942FCE
:10163000A32FB22FE985FA8584839583A683B78388
:10164000F101E05DFE4F8BA59CA5ADA5BEA58083F5
:101650009183A283B38362960FB6F894DEBF0FBE68
:10166000CDBFDF91CF911F910F91FF90EF90DF9051
:10167000CF90BF90AF909F908F907F906F905F9032
:101680004F903F902F9008956CEB72E082E191E0D3
:10169000E5DD8E36910591F56CEB72E082E191E02B
:1016A0000E9409036CEB72E082E191E01DDC6CEBBF
:1016B00072E082E191E04BDE8E36910549F482E1E1
:1016C00091E0C0DC65E070E082E191E08ADDEFCF7F
:1016D00020E030E040E85FE36091640270916502D1
:1016E0008091660290916702F6D3609364027093D2
:1016F00065028093660290936702C6CF0895CF93E8
:10170000DF93EC0169858E810E94FB002F8538896B
:101710002F3F4FEF340711F03A8B298B988B8F872F
:10172000BC0189899A890E94BB01833041F08536CA
:1017300061F0823059F48D859E85019703C08D85B7
:101740009E8501969E878D8701C08C87DF91CF9102
:1017500008951F920F920FB60F9211240BB60F929D
:101760002F933F934F935F936F937F938F939F93A9
:10177000AF93BF93EF93FF9382E591E0C0DF809139
:101780005F010E94CB00FF91EF91BF91AF919F91BC
:101790008F917F916F915F914F913F912F910F901A
:1017A0000BBE0F900FBE0F901F901895AF92BF9277
:1017B000CF92DF92EF92FF920F931F93CF930E94ED
:1017C000B600CEE6C0931D01E4E6F0E0F09315010B
:1017D000E093140171E07093160162E660931801C2
:1017E0004FE350E050931A014093190127E030E095
:1017F00030931C0120931B018FEF9FEF90932201E8
:10180000809321019093240180932301C0935D0173
:10181000F0935501E0935401709356016093580181
:1018200050935A014093590130935C0120935B011E
:1018300090936201809361019093640180936301AE
:10184000C0939D01F0939501E093940170939601EC
:101850006093980150939A014093990130939C01B1
:1018600020939B019093A2018093A1019093A401E6
:101870008093A301C093DD01F093D501E093D401DF
:101880007093D6016093D8015093DA014093D90147
:101890003093DC012093DB019093E2018093E1011E
:1018A0009093E4018093E301C0931D02E1E0F0E036
:1018B000F0931502E09314027093160260931802DD
:1018C00050931A024093190230931C0220931B027A
:1018D000909322028093210290932402809323020A
:1018E00089E780936C0281E483BF12BE8AE081BFE6
:1018F00087B7826087BF78941F9285E08F9383E4D7
:101900008F938FE78F931F921F921F921F921F92A8
:101910001F92A12CB12C84E1C82E82E4D82EE12C98
:10192000F12C870120E030E040EA51E46CEB72E0FA
:1019300082E191E08DDD6CEB72E082E191E08EDC82
:101940002DB73EB7265F3F4F0FB6F8943EBF0FBE90
:101950002DBF8937910509F04AC0C0936C02E0920F
:101960006402F0926502009366021093670280E0C1
:1019700090E0A0EAB1E480937A0290937B02A09376
:101980007C02B0937D02E0927E02F0927F0200938F
:10199000800210938102A0928202B0928302C092D0
:1019A0008402D09285028BED9FE0A9ECB0E4809395
:1019B000C4029093C502A093C602B093C70280E010
:1019C00090E0AFE7B3E48093D4029093D502A09364
:1019D000D602B093D70280E090E0A8ECB2E4809306
:1019E000680290936902A0936A02B0936B024CDE86
:1019F0006CEB72E082E191E031DC8937910509F00E
:101A00004BC08EE680936C021092640210926502C5
:101A1000109266021092670280E090E0A0EFB1E4BD
:101A200080937A0290937B02A0937C02B0937D0214
:101A300080937E0290937F02A0938002B0938102F4
:101A400080E090E0A8EDB1E480938202909383025D
:101A5000A0938402B09385021092C4021092C50232
:101A60001092C6021092C70280E090E0AFE7B3E4A4
:101A70008093D4029093D502A093D602B093D7025C
:101A800080E090E0A8ECB2E4809368029093690251
:101A9000A0936A02B0936B02F7DD6CEB72E082E117
:101AA00091E0DCDB8937910509F04FC08EE6809329
:101AB0006C021092640210926502109266021092FB
:101AC000670280E090E0A0E7B1E480937A0290930F
:101AD0007B02A0937C02B0937D0210927E02109252
:101AE0007F02109280021092810280E090E0A8E8CC
:101AF000B1E48093820290938302A0938402B09316
:101B000085028BED9FE0A9ECBFE38093C402909324
:101B1000C502A093C602B093C70280E090E0AFE791
:101B2000B3E48093D4029093D502A093D602B093ED
:101B3000D70280E090E0A8ECB2E480936802909332
:101B40006902A0936A02B0936B029EDD6CEB72E0B7
:101B500082E191E083DB8937910509F04BC08EE685
:101B600080936C02109264021092650210926602D9
:101B70001092670280E090E0A0EFB1E480937A02D7
:101B800090937B02A0937C02B0937D0280937E02AF
:101B900090937F02A0938002B093810280E090E056
:101BA000A8EDB1E48093820290938302A093840213
:101BB000B09385021092C4021092C5021092C60220
:101BC0001092C70280E090E0AFE7B3E48093D402C4
:101BD0009093D502A093D602B093D70280E090E014
:101BE000A8ECB2E48093680290936902A0936A0221
:101BF000B0936B0249DD80E090E0CF911F910F918F
:101C0000FF90EF90DF90CF90BF90AF900895ECEBF6
:101C1000F2E040E050E060E271E44083518362838F
:101C2000738314821582168217821086118612869B
:101C300013861486158616861786108A118A128ACC
:101C4000138A148A158A168A178A108E118E128E9C
:101C5000138E148E158E168E178E10A211A212A23C
:101C600013A2E2E1F1E026E730E03183208384E64D
:101C700090E09383828314A615A616A617A610AA31
:101C800011AA12AA13AA30935301209352019093E0
:101C900055018093540110927E0110927F011092A1
:101CA00080011092810110928201109283011092A2
:101CB00084011092850130939301209392019093B7
:101CC0009501809394011092BE011092BF01109271
:101CD000C0011092C1011092C2011092C301109272
:101CE000C4011092C5013093D3012093D201909387
:101CF000D5018093D4011092FE011092FF01109241
:101D0000000210920102109202021092030210923D
:101D10000402109205023093130220931202909352
:101D200015028093140210923E0210923F0210920C
:101D3000400210924102109242021092430210920D
:101D400044021092450280E090E0A8EDB1E4809357
:101D5000540290935502A0935602B093570280E02C
:101D600090E0A0EFB1E48093580290935902A093C1
:101D70005A02B0935B0280935C0290935D02A09341
:101D80005E02B0935F0240936002509361026093E1
:101D900062027093630210926E0210926F021092B0
:101DA00070021092710210927202109273021092DD
:101DB00074021092750210927602109277021092BD
:101DC00078021092790210927A0210927B0210929D
:101DD0007C0210927D0210927E0210927F0210927D
:101DE000800210928102109282021092830210925D
:101DF000840210928502109286021092870210923D
:101E000088021092890210928A0210928B0210921C
:101E10008C0210928D0210928E0210928F021092FC
:101E200090021092910210929202109293021092DC
:101E300094021092950210929602109297021092BC
:101E400098021092990210929A0210929B0210929C
:101E50009C0210929D0210929E0210929F0210927C
:101E6000A0021092A1021092A2021092A30210925C
:101E7000A4021092A5021092A6021092A70210923C
:101E8000A8021092A9021092AA021092AB0210921C
:101E9000AC021092AD021092AE021092AF021092FC
:101EA000B0021092B1021092B2021092B3021092DC
:101EB000B4021092B50208959F939F77C6D10F90F8
:101EC00000203AF49058A2EA2AED3FE049E450E4B9
:101ED00013D06FC25058BB27AA270ED06AC233D284
:101EE00030F038D220F031F49F3F11F41EF4F2C1EB
:101EF0000EF4E095E7FBE8C1E92F7DD280F3BA1735
:101F0000620773078407950718F071F49EF595C270
:101F10000EF4E0950B2EBA2FA02D0B01B901900104
:101F20000C01CA01A0011124FF27591B99F0593F48
:101F300050F4503E68F11A16F040A22F232F342F90
:101F40004427585FF3CF469537952795A795F040DE
:101F50005395C9F77EF41F16BA0B620B730B840BF3
:101F6000BAF09150A1F0FF0FBB1F661F771F881FAB
:101F7000C2F70EC0BA0F621F731F841F48F4879503
:101F800077956795B795F7959E3F08F0B3CF9395F2
:101F9000880F08F09927EE0F9795879508959F93DE
:101FA0009F77EEE389379E0720F4ECE8F0E0BAD1A2
:101FB00009C04BD19058A2EA2AED3FE049EC5FE31B
:101FC0009BDFF7D10F9007FC90580895BCD158F0D3
:101FD00080E891E009F49EEFBDD128F040E851E09F
:101FE00059F45EEF09C076C128C2E92FE07803D228
:101FF00068F3092E052AC1F3261737074807590742
:1020000038F00E2E07F8E02569F0E025E0640AC0FC
:10201000EF6307F8009407FADB01B9019D01DC01C9
:10202000CA01AD01EF934AD0C4D10AD05F915523C4
:1020300031F02BED3FE049E450FD49EC4CCF0895E1
:10204000DF93DD27B92FBF7740E85FE31616170649
:1020500048075B0710F4D92FFBD19F938F937F9391
:102060006F93A8D2E0EAF0E038D1A3D12F913F914D
:102070004F915F9100D2DD2349F09058A2EA2AEDFA
:102080003FE049EC5FE3D0785D2736DFDF9191C117
:10209000F7D008F481E0089565D1E3959BC10CD099
:1020A00088C158D140F04FD130F021F45F3F19F092
:1020B0000BC15111C3C10EC19ED198F39923C9F32D
:1020C0005523B1F3951B550BBB27AA27621773073E
:1020D000840738F09F5F5F4F220F331F441FAA1FF2
:1020E000A9F333D00E2E3AF0E0E830D091505040B2
:1020F000E695001CCAF729D0FE2F27D0660F771F60
:10210000881FBB1F261737074807AB07B0E809F041
:10211000BB0B802DBF01FF2793585F4F2AF09E3FD6
:10212000510568F0D1C08AC15F3FECF3983EDCF303
:10213000869577956795B795F7959F5FC9F7880F4F
:10214000911D9695879597F90895E1E0660F771FA1
:10215000881FBB1F621773078407BA0720F0621B32
:10216000730B840BBA0BEE1F88F7E095089504D02B
:102170006894B11163C1089546D188F09F5790F0DB
:10218000B92F9927B751A0F0D1F0660F771F881F9C
:10219000991F1AF0BA95C9F712C0B13081F04DD12C
:1021A000B1E008954AC1672F782F8827B85F39F0CA
:1021B000B93FCCF3869577956795B395D9F73EF4FB
:1021C00090958095709561957F4F8F4F9F4F0895A3
:1021D000E89409C097FB3EF49095809570956195C1
:1021E0007F4F8F4F9F4F9923A9F0F92F96E9BB2777
:1021F0009395F695879577956795B795F111F8CFF3
:10220000FAF4BB0F11F460FF1BC06F5F7F4F8F4F5D
:102210009F4F16C0882311F096E911C0772321F053
:102220009EE8872F762F05C0662371F096E8862FEB
:1022300070E060E02AF09A95660F771F881FDAF742
:10224000880F9695879597F90895DF93CF931F93FD
:102250000F938B01EC01EDECF0E03FD0AAD0980198
:10226000AE018B01EC0160E070E080E89FE332DEBC
:1022700063D19801AE010F911F91CF91DF91FBC007
:10228000990F0008550FAA0BE0E8FEEF1616170687
:10229000E807F907C0F012161306E407F50798F0EF
:1022A000621B730B840B950B39F40A2661F0232B08
:1022B000242B252B21F408950A2609F4A140A69584
:1022C0008FEF811D811D089597F99F6780E870E069
:1022D00060E008959FEF80EC0895DF93CF931F9304
:1022E0000F93FF92EF92DF927B018C01689405C0FF
:1022F000DA2EEF01C0D0FE01E894A5912591359129
:1023000045915591AEF3EF01F7DDFE019701A8016C
:10231000DA9479F7DF90EF90FF900F911F91CF91B2
:10232000DF9108959F938F937F936F93FF93EF9324
:102330009B01AC0194D0EF91FF91CFDF2F913F91A2
:102340004F915F918CC000240A9416161706180648
:102350000906089500240A941216130614060506A9
:102360000895B8CF50D0E8F3E894E0E0BB279F573A
:10237000F0F02AED3FE049EC06C0EE0FBB0F661F00
:10238000771F881F28F0B23A62077307840728F086
:10239000B25A620B730B840BE3959A9572F78038EF
:1023A00030F49A95BB0F661F771F881FD2F79048AD
:1023B00006C1092E0394000C11F4882352F0BB0FC0
:1023C00040F4BF2B11F460FF04C06F5F7F4F8F4F4D
:1023D0009F4F0895EF93E0FF06C0A2EA2AED3FE089
:1023E00049EC5FEB89DDE5DF0F90039401FC905829
:1023F000E5EFF0E097CF57FD9058440F551F59F087
:102400005F3F71F04795880F97FB991F61F09F3FE1
:1024100079F087950895121613061406551FF2CF0A
:102420004695F1DF08C0161617061806991FF1CF5A
:1024300086957105610508940895E894BB27662781
:102440007727CB0197F908951BDF08F48FEF0895E4
:102450009B01AC0160E070E080E89FE320CE0BD0F0
:10246000A8CF71DF28F076DF18F0952309F02CCF84
:1024700031CF1124E3CFBFDFA0F3959FD1F3950FA8
:1024800050E0551F629FF001729FBB27F00DB11DF8
:10249000639FAA27F00DB11DAA1F649F6627B00D88
:1024A000A11D661F829F2227B00DA11D621F739F71
:1024B000B00DA11D621F839FA00D611D221F749F7F
:1024C0003327A00D611D231F849F600D211D822FC6
:1024D000762F6A2F11249F5750408AF0E1F088230D
:1024E0004AF0EE0FFF1FBB1F661F771F881F91501A
:1024F0005040A9F79E3F510570F0E6CE9FCF5F3F59
:10250000ECF3983EDCF3869577956795B795F7954C
:10251000E7959F5FC1F7FE2B880F911D96958795D4
:1025200097F908959F931EDF0F9007FCEE5F52CF3F
:1025300011F40EF4CFCE41C066DFD0F39923D9F366
:10254000CEF39F57550B87FF46D00024A0E640EA04
:10255000900180585695979528F4805C660F771FF8
:10256000881F20F026173707480730F4621B730BCB
:10257000840B202931294A2BA695179407942025EE
:1025800031254A2758F7660F771F881F20F0261736
:102590003707480730F4620B730B840B200D311D95
:1025A000411DA09581F7B901842F9158880F969508
:1025B000879508959B01AC0152CF9F3F31F0915018
:1025C00020F4879577956795B795880F911D969517
:1025D000879597F9089591505040660F771F881F8F
:1025E000D2F7089597FB072E16F4009406D077FDD6
:1025F00008D00BD007FC05D03EF4909581959F4FF5
:102600000895709561957F4F0895AA1BBB1B51E1FA
:1026100007C0AA1FBB1FA617B70710F0A61BB70B52
:10262000881F991F5A95A9F780959095BC01CD01F7
:102630000895EE0FFF1F0024001C0BBE0790F691BB
:08264000E02D0994F894FFCF8E
:102648000000000100010100010100010624210928
:02265800181256
:00000001FF
