:100000006BC0000079C0000077C0000075C0000020
:1000100073C0000071C000006FC000006DC0000020
:100020006BC0000069C0000067C0000065C0000030
:1000300063C0000061C000005FC000005DC0000040
:100040005BC0000059C0000057C0000055C0000050
:1000500053C0000051C000004FC000004DC0000060
:100060004BC0000049C0000047C0000045C0000070
:1000700043C0000041C000003FC000003DC0000080
:100080003BC0000039C0000037C000009900A40048
:10009000AF00BA00C500D000DB00DB00DB00DB00F6
:1000A000DB00DB00DB00DB00DB00DB00DB00DB0078
:1000B000DB00DB00DB00DB00DB00DB00DB00DB0068
:1000C000DB00DB00DB00DB00DB00DB009900A400D1
:1000D000AF00BA00C500D00011241FBECFEFD0E1A1
:1000E000DEBFCDBF21E0A0E0B1E001C01D92A43D84
:1000F000B207E1F73AD27AC383CF181619066CF427
:1001000020E030E0E9EFF0E03197F1F700C00000C7
:100110002F5F3F4F82179307A9F7089590E0FC01E6
:10012000E154F109E632F10508F045C0EA5BFF4F02
:1001300005C36F3F7F4F29F481E0452B19F480E020
:1001400001C081E08BBB08956F3F7F4F29F481E0B0
:10015000452B19F480E001C081E088BB08956F3F12
:100160007F4F29F481E0452B19F480E001C081E044
:1001700085BB08956F3F7F4F29F481E0452B19F42B
:1001800080E001C081E082BB08956F3F7F4F29F47A
:1001900081E0452B19F480E001C081E083B9089526
:1001A0006F3F7F4F29F481E0452B19F480E001C0B7
:1001B00081E0809362000895613009F49FC008F4E3
:1001C00073C0623009F482C0633009F0AFC083307D
:1001D000910561F134F481309105F1F0029781F1DC
:1001E00066C08530910571F01CF0069799F15FC0EB
:1001F00020E005C02FEF03C021E001C025E682E02A
:1002000090E02BC020E005C02FEF03C021E001C02B
:1002100025E683E090E021C020E005C02FEF03C079
:1002200021E001C025E684E090E017C020E005C091
:100230002FEF03C021E001C025E685E090E00DC06E
:1002400020E005C02FEF03C021E001C025E686E0D5
:1002500090E003C020E081E090E0820F911D66E015
:1002600070E03DD28230910581F02CF40097B1F01E
:10027000019701F116C08430910551F01CF00597EB
:1002800051F00FC089E090E0089581E290E0089578
:1002900088E190E0089582E190E0089586E090E0A2
:1002A000089585E690E0089580E090E0089585E661
:1002B00090E0089584E290E0089588E190E0089548
:1002C00081E290E0089585E690E0089583309105FD
:1002D00009F4AECF44F48130910509F49FCF029721
:1002E00009F4B0CF08C08530910509F48DCF0CF426
:1002F00081CF069711F385E690E00895833091054C
:1003000009F498CF44F48130910509F489CF02971C
:1003100009F49ACF08C08530910509F477CF0CF421
:100320006BCF069769F285E690E0089583309105DA
:1003300009F482CF44F48130910509F473CF029718
:1003400009F484CFC0CF8530910509F461CF0CF456
:1003500055CF069709F0B7CF86E090E00895CF9388
:10036000DF93EC01CB01BA0126E030E040E050E041
:10037000C9D16230710581059105D9F05CF4611530
:1003800071058105910509F16130710581059105BE
:1003900069F01EC0643071058105910581F064F03B
:1003A000653071058105910569F012C086E090E025
:1003B00011C084E090E00EC085E090E00BC081E0C9
:1003C00090E008C083E090E005C082E090E002C0C9
:1003D00080E090E099838883DF91CF910895009722
:1003E000A9F46335710579F024F46E34710541F098
:1003F00013C06E36710521F06337710521F00CC012
:1004000080E090E0089583E090E0089518161906C2
:1004100034F082E090E008958FEF9FEF089581E03F
:1004200090E0089540E050E079DE81EE94E001979D
:10043000F1F700C000000895EF92FF920F931F9311
:10044000CF93C82F8B01790169DEC70156DEB80151
:100450008C2FE8DFCF911F910F91FF90EF900895BF
:100460000F931F93CF93C82F8B01622FFA018081C6
:100470009181A2DE22E330E0AC01B8018C2FDCDFF9
:10048000CF911F910F910895CF93DF93EC018D8D44
:100490009E8D29A13AA1821B930B9C8B8B8B6A8525
:1004A00070E09DDF9E8B8D8BDF91CF9108950F9330
:1004B0001F93CF93DF93FC01EC01CC54DF4F20E07E
:1004C00030E001E01FEF41A152A163A174A1858D2D
:1004D000968DA78DB0A1481759076A077B0721F0B1
:1004E000138F2F5F3F4F01C0038FBD96CE17DF07DD
:1004F00051F7232B19F481E090E002C08FEF9FEFBA
:10050000DF91CF911F910F910895CF92DF92EF92DB
:10051000FF92FC01AC014C545F4F20E030E071E0F1
:100520006FEF85A196A1A7A1B0A5C1A4D2A4E3A411
:10053000F4A48C199D09AE09BF0931F0648F948B26
:10054000838B2F5F3F4F01C0748FBD964E175F079F
:1005500041F7232B19F481E090E002C08FEF9FEF69
:10056000FF90EF90DF90CF9008950F2EF6E52F2E9D
:10057000F1E03F2EF02D0F2EFEE4CF2EF1E0DF2E26
:10058000F02DCAE4D1E00F2EF6EBEF2EF1E0FF2EB6
:10059000F02D02E411E0F101108211821282138227
:1005A00080E091E084DF0196B1F7F60180809180D0
:1005B000A280B38088819981AA81BB812401350101
:1005C000481A590A6A0A7B0AF7016081718182819F
:1005D00093812EE130E040E050E094D0CA01B901AF
:1005E000A30192016DD0860E971EA81EB91E8882A7
:1005F0009982AA82BB8280E091E087DF019609F0B0
:100600003EC0F60180809180A280B380888199816C
:10061000AA81BB8124013501481A590A6A0A7B0A5A
:10062000F70160817181828193812EE130E040E0A9
:1006300050E068D0CA01B901A301920141D0860EF1
:10064000971EA81EB91E88829982AA82BB828DE25B
:1006500091E01ADFF80120813181F101408151815F
:10066000628173818AE391E07ADEF8012081318131
:100670004AE351E06FE370E084E6F2DEBCCFF701BD
:1006800080819181A281B3810196A11DB11D8D331D
:100690009105A105B1052CF480839183A283B383D6
:1006A00005C0F7011082118212821382FFE926E849
:1006B00081E0F15020408040E1F700C0000070CFA1
:1006C000DB018F939F9343D0BF91AF91A29F800D89
:1006D000911DA39F900DB29F900D1124089597FB3B
:1006E000072E16F4009406D077FD08D03AD007FC08
:1006F00005D03EF4909581959F4F08957095619532
:100700007F4F0895052E97FB16F400940FD057FDE8
:1007100005D03BD007FC02D046F408C05095409568
:10072000309521953F4F4F4F5F4F0895909580959D
:10073000709561957F4F8F4F9F4F0895EE0FFF1F6C
:100740000024001C0BBE0790F691E02D09943FD0C9
:10075000A59F900DB49F900DA49F800D911D112415
:100760000895AA1BBB1B51E107C0AA1FBB1FA617F8
:10077000B70710F0A61BB70B881F991F5A95A9F74A
:1007800080959095BC01CD010895A1E21A2EAA1B77
:10079000BB1BFD010DC0AA1FBB1FEE1FFF1FA21731
:1007A000B307E407F50720F0A21BB30BE40BF50B2E
:1007B000661F771F881F991F1A9469F760957095B7
:1007C000809590959B01AC01BD01CF010895A29F3A
:1007D000B001B39FC001A39F700D811D1124911D15
:1007E000B29F700D811D1124911D0895F894FFCFC3
:00000001FF
